{
  "address": "0x5FbDB2315678afecb367f032d93F642f64180aa3",
  "abi": [
    {
      "inputs": [
        {
          "internalType": "string",
          "name": "name_",
          "type": "string"
        },
        {
          "internalType": "string",
          "name": "symbol_",
          "type": "string"
        },
        {
          "internalType": "string",
          "name": "baseTokenURI_",
          "type": "string"
        },
        {
          "internalType": "string",
          "name": "sku_",
          "type": "string"
        }
      ],
      "stateMutability": "nonpayable",
      "type": "constructor"
    },
    {
      "anonymous": false,
      "inputs": [
        {
          "indexed": true,
          "internalType": "address",
          "name": "owner",
          "type": "address"
        },
        {
          "indexed": true,
          "internalType": "address",
          "name": "approved",
          "type": "address"
        },
        {
          "indexed": true,
          "internalType": "uint256",
          "name": "tokenId",
          "type": "uint256"
        }
      ],
      "name": "Approval",
      "type": "event"
    },
    {
      "anonymous": false,
      "inputs": [
        {
          "indexed": true,
          "internalType": "address",
          "name": "owner",
          "type": "address"
        },
        {
          "indexed": true,
          "internalType": "address",
          "name": "operator",
          "type": "address"
        },
        {
          "indexed": false,
          "internalType": "bool",
          "name": "approved",
          "type": "bool"
        }
      ],
      "name": "ApprovalForAll",
      "type": "event"
    },
    {
      "anonymous": false,
      "inputs": [
        {
          "indexed": false,
          "internalType": "address",
          "name": "account",
          "type": "address"
        }
      ],
      "name": "Paused",
      "type": "event"
    },
    {
      "anonymous": false,
      "inputs": [
        {
          "indexed": true,
          "internalType": "bytes32",
          "name": "role",
          "type": "bytes32"
        },
        {
          "indexed": true,
          "internalType": "bytes32",
          "name": "previousAdminRole",
          "type": "bytes32"
        },
        {
          "indexed": true,
          "internalType": "bytes32",
          "name": "newAdminRole",
          "type": "bytes32"
        }
      ],
      "name": "RoleAdminChanged",
      "type": "event"
    },
    {
      "anonymous": false,
      "inputs": [
        {
          "indexed": true,
          "internalType": "bytes32",
          "name": "role",
          "type": "bytes32"
        },
        {
          "indexed": true,
          "internalType": "address",
          "name": "account",
          "type": "address"
        },
        {
          "indexed": true,
          "internalType": "address",
          "name": "sender",
          "type": "address"
        }
      ],
      "name": "RoleGranted",
      "type": "event"
    },
    {
      "anonymous": false,
      "inputs": [
        {
          "indexed": true,
          "internalType": "bytes32",
          "name": "role",
          "type": "bytes32"
        },
        {
          "indexed": true,
          "internalType": "address",
          "name": "account",
          "type": "address"
        },
        {
          "indexed": true,
          "internalType": "address",
          "name": "sender",
          "type": "address"
        }
      ],
      "name": "RoleRevoked",
      "type": "event"
    },
    {
      "anonymous": false,
      "inputs": [
        {
          "indexed": true,
          "internalType": "address",
          "name": "from",
          "type": "address"
        },
        {
          "indexed": true,
          "internalType": "address",
          "name": "to",
          "type": "address"
        },
        {
          "indexed": true,
          "internalType": "uint256",
          "name": "tokenId",
          "type": "uint256"
        }
      ],
      "name": "Transfer",
      "type": "event"
    },
    {
      "anonymous": false,
      "inputs": [
        {
          "indexed": false,
          "internalType": "address",
          "name": "account",
          "type": "address"
        }
      ],
      "name": "Unpaused",
      "type": "event"
    },
    {
      "inputs": [],
      "name": "DEFAULT_ADMIN_ROLE",
      "outputs": [
        {
          "internalType": "bytes32",
          "name": "",
          "type": "bytes32"
        }
      ],
      "stateMutability": "view",
      "type": "function"
    },
    {
      "inputs": [],
      "name": "MINTER_ROLE",
      "outputs": [
        {
          "internalType": "bytes32",
          "name": "",
          "type": "bytes32"
        }
      ],
      "stateMutability": "view",
      "type": "function"
    },
    {
      "inputs": [],
      "name": "PAUSER_ROLE",
      "outputs": [
        {
          "internalType": "bytes32",
          "name": "",
          "type": "bytes32"
        }
      ],
      "stateMutability": "view",
      "type": "function"
    },
    {
      "inputs": [
        {
          "internalType": "address",
          "name": "to",
          "type": "address"
        },
        {
          "internalType": "uint256",
          "name": "tokenId",
          "type": "uint256"
        }
      ],
      "name": "approve",
      "outputs": [],
      "stateMutability": "nonpayable",
      "type": "function"
    },
    {
      "inputs": [
        {
          "internalType": "address",
          "name": "owner",
          "type": "address"
        }
      ],
      "name": "balanceOf",
      "outputs": [
        {
          "internalType": "uint256",
          "name": "",
          "type": "uint256"
        }
      ],
      "stateMutability": "view",
      "type": "function"
    },
    {
      "inputs": [
        {
          "internalType": "uint256",
          "name": "tokenId",
          "type": "uint256"
        }
      ],
      "name": "burn",
      "outputs": [],
      "stateMutability": "nonpayable",
      "type": "function"
    },
    {
      "inputs": [
        {
          "internalType": "uint256",
          "name": "tokenId",
          "type": "uint256"
        }
      ],
      "name": "getApproved",
      "outputs": [
        {
          "internalType": "address",
          "name": "",
          "type": "address"
        }
      ],
      "stateMutability": "view",
      "type": "function"
    },
    {
      "inputs": [
        {
          "internalType": "bytes32",
          "name": "role",
          "type": "bytes32"
        }
      ],
      "name": "getRoleAdmin",
      "outputs": [
        {
          "internalType": "bytes32",
          "name": "",
          "type": "bytes32"
        }
      ],
      "stateMutability": "view",
      "type": "function"
    },
    {
      "inputs": [
        {
          "internalType": "bytes32",
          "name": "role",
          "type": "bytes32"
        },
        {
          "internalType": "uint256",
          "name": "index",
          "type": "uint256"
        }
      ],
      "name": "getRoleMember",
      "outputs": [
        {
          "internalType": "address",
          "name": "",
          "type": "address"
        }
      ],
      "stateMutability": "view",
      "type": "function"
    },
    {
      "inputs": [
        {
          "internalType": "bytes32",
          "name": "role",
          "type": "bytes32"
        }
      ],
      "name": "getRoleMemberCount",
      "outputs": [
        {
          "internalType": "uint256",
          "name": "",
          "type": "uint256"
        }
      ],
      "stateMutability": "view",
      "type": "function"
    },
    {
      "inputs": [
        {
          "internalType": "bytes32",
          "name": "role",
          "type": "bytes32"
        },
        {
          "internalType": "address",
          "name": "account",
          "type": "address"
        }
      ],
      "name": "grantRole",
      "outputs": [],
      "stateMutability": "nonpayable",
      "type": "function"
    },
    {
      "inputs": [
        {
          "internalType": "bytes32",
          "name": "role",
          "type": "bytes32"
        },
        {
          "internalType": "address",
          "name": "account",
          "type": "address"
        }
      ],
      "name": "hasRole",
      "outputs": [
        {
          "internalType": "bool",
          "name": "",
          "type": "bool"
        }
      ],
      "stateMutability": "view",
      "type": "function"
    },
    {
      "inputs": [
        {
          "internalType": "address",
          "name": "owner",
          "type": "address"
        },
        {
          "internalType": "address",
          "name": "operator",
          "type": "address"
        }
      ],
      "name": "isApprovedForAll",
      "outputs": [
        {
          "internalType": "bool",
          "name": "",
          "type": "bool"
        }
      ],
      "stateMutability": "view",
      "type": "function"
    },
    {
      "inputs": [
        {
          "internalType": "address",
          "name": "storeContract_",
          "type": "address"
        }
      ],
      "name": "mint",
      "outputs": [],
      "stateMutability": "nonpayable",
      "type": "function"
    },
    {
      "inputs": [],
      "name": "name",
      "outputs": [
        {
          "internalType": "string",
          "name": "",
          "type": "string"
        }
      ],
      "stateMutability": "view",
      "type": "function"
    },
    {
      "inputs": [
        {
          "internalType": "uint256",
          "name": "tokenId",
          "type": "uint256"
        }
      ],
      "name": "ownerOf",
      "outputs": [
        {
          "internalType": "address",
          "name": "",
          "type": "address"
        }
      ],
      "stateMutability": "view",
      "type": "function"
    },
    {
      "inputs": [],
      "name": "pause",
      "outputs": [],
      "stateMutability": "nonpayable",
      "type": "function"
    },
    {
      "inputs": [],
      "name": "paused",
      "outputs": [
        {
          "internalType": "bool",
          "name": "",
          "type": "bool"
        }
      ],
      "stateMutability": "view",
      "type": "function"
    },
    {
      "inputs": [
        {
          "internalType": "bytes32",
          "name": "role",
          "type": "bytes32"
        },
        {
          "internalType": "address",
          "name": "account",
          "type": "address"
        }
      ],
      "name": "renounceRole",
      "outputs": [],
      "stateMutability": "nonpayable",
      "type": "function"
    },
    {
      "inputs": [
        {
          "internalType": "bytes32",
          "name": "role",
          "type": "bytes32"
        },
        {
          "internalType": "address",
          "name": "account",
          "type": "address"
        }
      ],
      "name": "revokeRole",
      "outputs": [],
      "stateMutability": "nonpayable",
      "type": "function"
    },
    {
      "inputs": [
        {
          "internalType": "address",
          "name": "from",
          "type": "address"
        },
        {
          "internalType": "address",
          "name": "to",
          "type": "address"
        },
        {
          "internalType": "uint256",
          "name": "tokenId",
          "type": "uint256"
        }
      ],
      "name": "safeTransferFrom",
      "outputs": [],
      "stateMutability": "nonpayable",
      "type": "function"
    },
    {
      "inputs": [
        {
          "internalType": "address",
          "name": "from",
          "type": "address"
        },
        {
          "internalType": "address",
          "name": "to",
          "type": "address"
        },
        {
          "internalType": "uint256",
          "name": "tokenId",
          "type": "uint256"
        },
        {
          "internalType": "bytes",
          "name": "_data",
          "type": "bytes"
        }
      ],
      "name": "safeTransferFrom",
      "outputs": [],
      "stateMutability": "nonpayable",
      "type": "function"
    },
    {
      "inputs": [
        {
          "internalType": "address",
          "name": "operator",
          "type": "address"
        },
        {
          "internalType": "bool",
          "name": "approved",
          "type": "bool"
        }
      ],
      "name": "setApprovalForAll",
      "outputs": [],
      "stateMutability": "nonpayable",
      "type": "function"
    },
    {
      "inputs": [],
      "name": "sku",
      "outputs": [
        {
          "internalType": "string",
          "name": "",
          "type": "string"
        }
      ],
      "stateMutability": "view",
      "type": "function"
    },
    {
      "inputs": [
        {
          "internalType": "bytes4",
          "name": "interfaceId_",
          "type": "bytes4"
        }
      ],
      "name": "supportsInterface",
      "outputs": [
        {
          "internalType": "bool",
          "name": "",
          "type": "bool"
        }
      ],
      "stateMutability": "view",
      "type": "function"
    },
    {
      "inputs": [],
      "name": "symbol",
      "outputs": [
        {
          "internalType": "string",
          "name": "",
          "type": "string"
        }
      ],
      "stateMutability": "view",
      "type": "function"
    },
    {
      "inputs": [
        {
          "internalType": "uint256",
          "name": "index",
          "type": "uint256"
        }
      ],
      "name": "tokenByIndex",
      "outputs": [
        {
          "internalType": "uint256",
          "name": "",
          "type": "uint256"
        }
      ],
      "stateMutability": "view",
      "type": "function"
    },
    {
      "inputs": [
        {
          "internalType": "address",
          "name": "owner",
          "type": "address"
        },
        {
          "internalType": "uint256",
          "name": "index",
          "type": "uint256"
        }
      ],
      "name": "tokenOfOwnerByIndex",
      "outputs": [
        {
          "internalType": "uint256",
          "name": "",
          "type": "uint256"
        }
      ],
      "stateMutability": "view",
      "type": "function"
    },
    {
      "inputs": [
        {
          "internalType": "uint256",
          "name": "tokenId",
          "type": "uint256"
        }
      ],
      "name": "tokenURI",
      "outputs": [
        {
          "internalType": "string",
          "name": "",
          "type": "string"
        }
      ],
      "stateMutability": "view",
      "type": "function"
    },
    {
      "inputs": [],
      "name": "totalSupply",
      "outputs": [
        {
          "internalType": "uint256",
          "name": "",
          "type": "uint256"
        }
      ],
      "stateMutability": "view",
      "type": "function"
    },
    {
      "inputs": [
        {
          "internalType": "address",
          "name": "from",
          "type": "address"
        },
        {
          "internalType": "address",
          "name": "to",
          "type": "address"
        },
        {
          "internalType": "uint256",
          "name": "tokenId",
          "type": "uint256"
        }
      ],
      "name": "transferFrom",
      "outputs": [],
      "stateMutability": "nonpayable",
      "type": "function"
    },
    {
      "inputs": [],
      "name": "unpause",
      "outputs": [],
      "stateMutability": "nonpayable",
      "type": "function"
    }
  ],
  "transactionHash": "0x935597b7244634d6ef1e7d8fd0a868e2828b2c2d7796d6fbf103282434128102",
  "args": [
    "MyProduct",
    "PRD",
    "http://localhost/baseuri/",
    "prd-001"
  ],
  "solcInputHash": "fe59dd4529ba3ed8bfd3387650d12abe",
  "bytecode": "0x60806040523480156200001157600080fd5b5060405162002f4a38038062002f4a833981016040819052620000349162000453565b8351849084906200004d906002906020850190620002fa565b50805162000063906003906020840190620002fa565b5050600c805460ff19169055506200007b8162000177565b15620000dc5760405162461bcd60e51b815260206004820152602660248201527f50726f647563743a20736b752063616e6e6f7420626520616e20656d70747920604482015265737472696e6760d01b606482015260840160405180910390fd5b8151620000f190600f906020850190620002fa565b5080516200010790600d906020840190620002fa565b506200011560003362000195565b620001417f9f2df0fed2c77648de5860a4cc508cd0818c85b8b8a1ab4ceeef8d981c8956a63362000195565b6200016d7f65d7a28e3265b37a6474929f336521b332c1681b933f6cb9f3376673440d862a3362000195565b505050506200055a565b805160009082906200018c5750600192915050565b50600092915050565b620001ac8282620001d860201b620010891760201c565b6000828152600160209081526040909120620001d391839062001093620001e8821b17901c565b505050565b620001e4828262000208565b5050565b6000620001ff836001600160a01b038416620002a8565b90505b92915050565b6000828152602081815260408083206001600160a01b038516845290915290205460ff16620001e4576000828152602081815260408083206001600160a01b03851684529091529020805460ff19166001179055620002643390565b6001600160a01b0316816001600160a01b0316837f2f8788117e7eff1d82e926ec794901d17c78024a50270940304540a733656f0d60405160405180910390a45050565b6000818152600183016020526040812054620002f15750815460018181018455600084815260208082209093018490558454848252828601909352604090209190915562000202565b50600062000202565b828054620003089062000507565b90600052602060002090601f0160209004810192826200032c576000855562000377565b82601f106200034757805160ff191683800117855562000377565b8280016001018555821562000377579182015b82811115620003775782518255916020019190600101906200035a565b506200038592915062000389565b5090565b5b808211156200038557600081556001016200038a565b600082601f830112620003b1578081fd5b81516001600160401b0380821115620003ce57620003ce62000544565b604051601f8301601f19908116603f01168101908282118183101715620003f957620003f962000544565b8160405283815260209250868385880101111562000415578485fd5b8491505b8382101562000438578582018301518183018401529082019062000419565b838211156200044957848385830101525b9695505050505050565b6000806000806080858703121562000469578384fd5b84516001600160401b038082111562000480578586fd5b6200048e88838901620003a0565b95506020870151915080821115620004a4578485fd5b620004b288838901620003a0565b94506040870151915080821115620004c8578384fd5b620004d688838901620003a0565b93506060870151915080821115620004ec578283fd5b50620004fb87828801620003a0565b91505092959194509250565b600181811c908216806200051c57607f821691505b602082108114156200053e57634e487b7160e01b600052602260045260246000fd5b50919050565b634e487b7160e01b600052604160045260246000fd5b6129e0806200056a6000396000f3fe608060405234801561001057600080fd5b50600436106101f05760003560e01c80636352211e1161010f578063a22cb465116100a2578063d539139311610071578063d53913931461040a578063d547741f14610431578063e63ab1e914610444578063e985e9c51461046b57600080fd5b8063a22cb465146103be578063b88d4fde146103d1578063c87b56dd146103e4578063ca15c873146103f757600080fd5b80639010d07c116100de5780639010d07c1461038857806391d148541461039b57806395d89b41146103ae578063a217fddf146103b657600080fd5b80636352211e146103475780636a6278421461035a57806370a082311461036d5780638456cb591461038057600080fd5b80632f745c591161018757806342966c681161015657806342966c681461030e5780634462f40c146103215780634f6ccce7146103295780635c975abb1461033c57600080fd5b80632f745c59146102cd57806336568abe146102e05780633f4ba83a146102f357806342842e0e146102fb57600080fd5b806318160ddd116101c357806318160ddd1461027257806323b872dd14610284578063248a9ca3146102975780632f2ff15d146102ba57600080fd5b806301ffc9a7146101f557806306fdde031461021d578063081812fc14610232578063095ea7b31461025d575b600080fd5b6102086102033660046125a7565b6104a7565b60405190151581526020015b60405180910390f35b6102256104b8565b6040516102149190612740565b61024561024036600461254c565b61054a565b6040516001600160a01b039091168152602001610214565b61027061026b366004612523565b6105e4565b005b600a545b604051908152602001610214565b6102706102923660046123d9565b6106fa565b6102766102a536600461254c565b60009081526020819052604090206001015490565b6102706102c8366004612564565b61072c565b6102766102db366004612523565b61074e565b6102706102ee366004612564565b6107e4565b610270610806565b6102706103093660046123d9565b610898565b61027061031c36600461254c565b6108b3565b61022561092d565b61027661033736600461254c565b6109bb565b600c5460ff16610208565b61024561035536600461254c565b610a5c565b61027061036836600461238d565b610ad3565b61027661037b36600461238d565b610d25565b610270610dac565b610245610396366004612586565b610e3a565b6102086103a9366004612564565b610e59565b610225610e82565b610276600081565b6102706103cc3660046124e9565b610e91565b6102706103df366004612414565b610f56565b6102256103f236600461254c565b610f8e565b61027661040536600461254c565b611068565b6102767f9f2df0fed2c77648de5860a4cc508cd0818c85b8b8a1ab4ceeef8d981c8956a681565b61027061043f366004612564565b61107f565b6102767f65d7a28e3265b37a6474929f336521b332c1681b933f6cb9f3376673440d862a81565b6102086104793660046123a7565b6001600160a01b03918216600090815260076020908152604080832093909416825291909152205460ff1690565b60006104b2826110a8565b92915050565b6060600280546104c7906128e8565b80601f01602080910402602001604051908101604052809291908181526020018280546104f3906128e8565b80156105405780601f1061051557610100808354040283529160200191610540565b820191906000526020600020905b81548152906001019060200180831161052357829003601f168201915b5050505050905090565b6000818152600460205260408120546001600160a01b03166105c85760405162461bcd60e51b815260206004820152602c60248201527f4552433732313a20617070726f76656420717565727920666f72206e6f6e657860448201526b34b9ba32b73a103a37b5b2b760a11b60648201526084015b60405180910390fd5b506000908152600660205260409020546001600160a01b031690565b60006105ef82610a5c565b9050806001600160a01b0316836001600160a01b0316141561065d5760405162461bcd60e51b815260206004820152602160248201527f4552433732313a20617070726f76616c20746f2063757272656e74206f776e656044820152603960f91b60648201526084016105bf565b336001600160a01b038216148061067957506106798133610479565b6106eb5760405162461bcd60e51b815260206004820152603860248201527f4552433732313a20617070726f76652063616c6c6572206973206e6f74206f7760448201527f6e6572206e6f7220617070726f76656420666f7220616c6c000000000000000060648201526084016105bf565b6106f583836110cd565b505050565b610705335b8261113b565b6107215760405162461bcd60e51b81526004016105bf906127f2565b6106f5838383611232565b61073682826113dd565b60008281526001602052604090206106f59082611093565b600061075983610d25565b82106107bb5760405162461bcd60e51b815260206004820152602b60248201527f455243373231456e756d657261626c653a206f776e657220696e646578206f7560448201526a74206f6620626f756e647360a81b60648201526084016105bf565b506001600160a01b03919091166000908152600860209081526040808320938352929052205490565b6107ee8282611403565b60008281526001602052604090206106f5908261147d565b6108307f65d7a28e3265b37a6474929f336521b332c1681b933f6cb9f3376673440d862a33610e59565b61088e5760405162461bcd60e51b815260206004820152602960248201527f50726f647563743a206d75737420686176652070617573657220726f6c6520746044820152686f20756e706175736560b81b60648201526084016105bf565b610896611492565b565b6106f583838360405180602001604052806000815250610f56565b6108bc336106ff565b6109215760405162461bcd60e51b815260206004820152603060248201527f4552433732314275726e61626c653a2063616c6c6572206973206e6f74206f7760448201526f1b995c881b9bdc88185c1c1c9bdd995960821b60648201526084016105bf565b61092a81611525565b50565b600d805461093a906128e8565b80601f0160208091040260200160405190810160405280929190818152602001828054610966906128e8565b80156109b35780601f10610988576101008083540402835291602001916109b3565b820191906000526020600020905b81548152906001019060200180831161099657829003601f168201915b505050505081565b60006109c6600a5490565b8210610a295760405162461bcd60e51b815260206004820152602c60248201527f455243373231456e756d657261626c653a20676c6f62616c20696e646578206f60448201526b7574206f6620626f756e647360a01b60648201526084016105bf565b600a8281548110610a4a57634e487b7160e01b600052603260045260246000fd5b90600052602060002001549050919050565b6000818152600460205260408120546001600160a01b0316806104b25760405162461bcd60e51b815260206004820152602960248201527f4552433732313a206f776e657220717565727920666f72206e6f6e657869737460448201526832b73a103a37b5b2b760b91b60648201526084016105bf565b610afd7f9f2df0fed2c77648de5860a4cc508cd0818c85b8b8a1ab4ceeef8d981c8956a633610e59565b610b585760405162461bcd60e51b815260206004820152602660248201527f50726f647563743a206d7573742068617665206d696e74657220726f6c6520746044820152651bc81b5a5b9d60d21b60648201526084016105bf565b6001600160a01b038116610b7e5760405162461bcd60e51b81526004016105bf90612753565b601080546001600160a01b0319166001600160a01b038316908117909155600d8054600092610c35929091610bb2906128e8565b80601f0160208091040260200160405190810160405280929190818152602001828054610bde906128e8565b8015610c2b5780601f10610c0057610100808354040283529160200191610c2b565b820191906000526020600020905b815481529060010190602001808311610c0e57829003601f168201915b50505050506115cc565b9050601181604051610c479190612643565b9081526040519081900360200190205460ff1615610cc25760405162461bcd60e51b815260206004820152603260248201527f50726f647563743a206120746f6b656e20616c726561647920657869737473206044820152710eed2e8d040e8d0d2e640a696aa40d0c2e6d60731b60648201526084016105bf565b6001601182604051610cd49190612643565b908152604051908190036020019020805491151560ff19909216919091179055601054610d13906001600160a01b0316610d0d600e5490565b8361161e565b610d21600e80546001019055565b5050565b60006001600160a01b038216610d905760405162461bcd60e51b815260206004820152602a60248201527f4552433732313a2062616c616e636520717565727920666f7220746865207a65604482015269726f206164647265737360b01b60648201526084016105bf565b506001600160a01b031660009081526005602052604090205490565b610dd67f65d7a28e3265b37a6474929f336521b332c1681b933f6cb9f3376673440d862a33610e59565b610e325760405162461bcd60e51b815260206004820152602760248201527f50726f647563743a206d75737420686176652070617573657220726f6c6520746044820152666f20706175736560c81b60648201526084016105bf565b610896611651565b6000828152600160205260408120610e5290836116cc565b9392505050565b6000918252602082815260408084206001600160a01b0393909316845291905290205460ff1690565b6060600380546104c7906128e8565b6001600160a01b038216331415610eea5760405162461bcd60e51b815260206004820152601960248201527f4552433732313a20617070726f766520746f2063616c6c65720000000000000060448201526064016105bf565b3360008181526007602090815260408083206001600160a01b03871680855290835292819020805460ff191686151590811790915590519081529192917f17307eab39ab6107e8899845ad3d59bd9653f200f220920489ca2b5937696c31910160405180910390a35050565b610f60338361113b565b610f7c5760405162461bcd60e51b81526004016105bf906127f2565b610f88848484846116d8565b50505050565b6000818152600460205260409020546060906001600160a01b031661100d5760405162461bcd60e51b815260206004820152602f60248201527f4552433732314d657461646174613a2055524920717565727920666f72206e6f60448201526e3732bc34b9ba32b73a103a37b5b2b760891b60648201526084016105bf565b600061101761170b565b905060008151116110375760405180602001604052806000815250610e52565b806110418461171a565b60405160200161105292919061265f565b6040516020818303038152906040529392505050565b60008181526001602052604081206104b290611834565b6107ee828261183e565b610d218282611864565b6000610e52836001600160a01b0384166118e8565b60006001600160e01b0319821663780e9d6360e01b14806104b257506104b282611937565b600081815260066020526040902080546001600160a01b0319166001600160a01b038416908117909155819061110282610a5c565b6001600160a01b03167f8c5be1e5ebec7d5bd14f71427d1e84f3dd0314c0f7b2291e5b200ac8c7c3b92560405160405180910390a45050565b6000818152600460205260408120546001600160a01b03166111b45760405162461bcd60e51b815260206004820152602c60248201527f4552433732313a206f70657261746f7220717565727920666f72206e6f6e657860448201526b34b9ba32b73a103a37b5b2b760a11b60648201526084016105bf565b60006111bf83610a5c565b9050806001600160a01b0316846001600160a01b031614806111fa5750836001600160a01b03166111ef8461054a565b6001600160a01b0316145b8061122a57506001600160a01b0380821660009081526007602090815260408083209388168352929052205460ff165b949350505050565b826001600160a01b031661124582610a5c565b6001600160a01b0316146112ad5760405162461bcd60e51b815260206004820152602960248201527f4552433732313a207472616e73666572206f6620746f6b656e2074686174206960448201526839903737ba1037bbb760b91b60648201526084016105bf565b6001600160a01b03821661130f5760405162461bcd60e51b8152602060048201526024808201527f4552433732313a207472616e7366657220746f20746865207a65726f206164646044820152637265737360e01b60648201526084016105bf565b61131a838383611977565b6113256000826110cd565b6001600160a01b038316600090815260056020526040812080546001929061134e90849061288e565b90915550506001600160a01b038216600090815260056020526040812080546001929061137c908490612843565b909155505060008181526004602052604080822080546001600160a01b0319166001600160a01b0386811691821790925591518493918716917fddf252ad1be2c89b69c2b068fc378daa952ba7f163c4a11628f55a4df523b3ef91a4505050565b6000828152602081905260409020600101546113f98133611982565b6106f58383611864565b6001600160a01b03811633146114735760405162461bcd60e51b815260206004820152602f60248201527f416363657373436f6e74726f6c3a2063616e206f6e6c792072656e6f756e636560448201526e103937b632b9903337b91039b2b63360891b60648201526084016105bf565b610d2182826119e6565b6000610e52836001600160a01b038416611a4b565b600c5460ff166114db5760405162461bcd60e51b815260206004820152601460248201527314185d5cd8589b194e881b9bdd081c185d5cd95960621b60448201526064016105bf565b600c805460ff191690557f5db9ee0a495bf2e6ff9c91a7834c1ba4fdd244a5e8aa4e537bd38aeae4b073aa335b6040516001600160a01b03909116815260200160405180910390a1565b600061153082610a5c565b905061153e81600084611977565b6115496000836110cd565b6001600160a01b038116600090815260056020526040812080546001929061157290849061288e565b909155505060008281526004602052604080822080546001600160a01b0319169055518391906001600160a01b038416907fddf252ad1be2c89b69c2b068fc378daa952ba7f163c4a11628f55a4df523b3ef908390a45050565b60606001600160a01b0383166115f45760405162461bcd60e51b81526004016105bf90612753565b828260405160200161160792919061260b565b604051602081830303815290604052905092915050565b6116288383611b62565b6116356000848484611cb0565b6106f55760405162461bcd60e51b81526004016105bf906127a0565b600c5460ff16156116975760405162461bcd60e51b815260206004820152601060248201526f14185d5cd8589b194e881c185d5cd95960821b60448201526064016105bf565b600c805460ff191660011790557f62e78cea01bee320cd4e420270b5ea74000d11b0c9f74754ebdbfc544b05a2586115083390565b6000610e528383611dbd565b6116e3848484611232565b6116ef84848484611cb0565b610f885760405162461bcd60e51b81526004016105bf906127a0565b6060600f80546104c7906128e8565b60608161173e5750506040805180820190915260018152600360fc1b602082015290565b8160005b8115611768578061175281612923565b91506117619050600a8361285b565b9150611742565b60008167ffffffffffffffff81111561179157634e487b7160e01b600052604160045260246000fd5b6040519080825280601f01601f1916602001820160405280156117bb576020820181803683370190505b5090505b841561122a576117d060018361288e565b91506117dd600a8661293e565b6117e8906030612843565b60f81b81838151811061180b57634e487b7160e01b600052603260045260246000fd5b60200101906001600160f81b031916908160001a90535061182d600a8661285b565b94506117bf565b60006104b2825490565b60008281526020819052604090206001015461185a8133611982565b6106f583836119e6565b61186e8282610e59565b610d21576000828152602081815260408083206001600160a01b03851684529091529020805460ff191660011790556118a43390565b6001600160a01b0316816001600160a01b0316837f2f8788117e7eff1d82e926ec794901d17c78024a50270940304540a733656f0d60405160405180910390a45050565b600081815260018301602052604081205461192f575081546001818101845560008481526020808220909301849055845484825282860190935260409020919091556104b2565b5060006104b2565b60006001600160e01b031982166380ac58cd60e01b148061196857506001600160e01b03198216635b5e139f60e01b145b806104b257506104b282611e51565b6106f5838383611e76565b61198c8282610e59565b610d21576119a4816001600160a01b03166014611ee8565b6119af836020611ee8565b6040516020016119c092919061268e565b60408051601f198184030181529082905262461bcd60e51b82526105bf91600401612740565b6119f08282610e59565b15610d21576000828152602081815260408083206001600160a01b0385168085529252808320805460ff1916905551339285917ff6391f5c32d9c69d2a47ea670b442974b53935d1edc7fd64eb21e047a839171b9190a45050565b60008181526001830160205260408120548015611b58576000611a6f60018361288e565b8554909150600090611a839060019061288e565b90506000866000018281548110611aaa57634e487b7160e01b600052603260045260246000fd5b9060005260206000200154905080876000018481548110611adb57634e487b7160e01b600052603260045260246000fd5b600091825260208083209091019290925582815260018901909152604090208490558654879080611b1c57634e487b7160e01b600052603160045260246000fd5b600190038181906000526020600020016000905590558660010160008781526020019081526020016000206000905560019450505050506104b2565b60009150506104b2565b6001600160a01b038216611bb85760405162461bcd60e51b815260206004820181905260248201527f4552433732313a206d696e7420746f20746865207a65726f206164647265737360448201526064016105bf565b6000818152600460205260409020546001600160a01b031615611c1d5760405162461bcd60e51b815260206004820152601c60248201527f4552433732313a20746f6b656e20616c7265616479206d696e7465640000000060448201526064016105bf565b611c2960008383611977565b6001600160a01b0382166000908152600560205260408120805460019290611c52908490612843565b909155505060008181526004602052604080822080546001600160a01b0319166001600160a01b03861690811790915590518392907fddf252ad1be2c89b69c2b068fc378daa952ba7f163c4a11628f55a4df523b3ef908290a45050565b60006001600160a01b0384163b15611db257604051630a85bd0160e11b81526001600160a01b0385169063150b7a0290611cf4903390899088908890600401612703565b602060405180830381600087803b158015611d0e57600080fd5b505af1925050508015611d3e575060408051601f3d908101601f19168201909252611d3b918101906125c3565b60015b611d98573d808015611d6c576040519150601f19603f3d011682016040523d82523d6000602084013e611d71565b606091505b508051611d905760405162461bcd60e51b81526004016105bf906127a0565b805181602001fd5b6001600160e01b031916630a85bd0160e11b14905061122a565b506001949350505050565b81546000908210611e1b5760405162461bcd60e51b815260206004820152602260248201527f456e756d657261626c655365743a20696e646578206f7574206f6620626f756e604482015261647360f01b60648201526084016105bf565b826000018281548110611e3e57634e487b7160e01b600052603260045260246000fd5b9060005260206000200154905092915050565b60006001600160e01b03198216635a05180f60e01b14806104b257506104b2826120ca565b611e818383836120ff565b600c5460ff16156106f55760405162461bcd60e51b815260206004820152602b60248201527f4552433732315061757361626c653a20746f6b656e207472616e73666572207760448201526a1a1a5b19481c185d5cd95960aa1b60648201526084016105bf565b60606000611ef783600261286f565b611f02906002612843565b67ffffffffffffffff811115611f2857634e487b7160e01b600052604160045260246000fd5b6040519080825280601f01601f191660200182016040528015611f52576020820181803683370190505b509050600360fc1b81600081518110611f7b57634e487b7160e01b600052603260045260246000fd5b60200101906001600160f81b031916908160001a905350600f60fb1b81600181518110611fb857634e487b7160e01b600052603260045260246000fd5b60200101906001600160f81b031916908160001a9053506000611fdc84600261286f565b611fe7906001612843565b90505b600181111561207b576f181899199a1a9b1b9c1cb0b131b232b360811b85600f166010811061202957634e487b7160e01b600052603260045260246000fd5b1a60f81b82828151811061204d57634e487b7160e01b600052603260045260246000fd5b60200101906001600160f81b031916908160001a90535060049490941c93612074816128d1565b9050611fea565b508315610e525760405162461bcd60e51b815260206004820181905260248201527f537472696e67733a20686578206c656e67746820696e73756666696369656e7460448201526064016105bf565b60006001600160e01b03198216637965db0b60e01b14806104b257506301ffc9a760e01b6001600160e01b03198316146104b2565b6001600160a01b03831661215a5761215581600a80546000838152600b60205260408120829055600182018355919091527fc65a7bb8d6351c1cf70c95a316cc6a92839c986682d98bc35f958f4883f9d2a80155565b61217d565b816001600160a01b0316836001600160a01b03161461217d5761217d83826121b7565b6001600160a01b038216612194576106f581612254565b826001600160a01b0316826001600160a01b0316146106f5576106f5828261232d565b600060016121c484610d25565b6121ce919061288e565b600083815260096020526040902054909150808214612221576001600160a01b03841660009081526008602090815260408083208584528252808320548484528184208190558352600990915290208190555b5060009182526009602090815260408084208490556001600160a01b039094168352600881528383209183525290812055565b600a546000906122669060019061288e565b6000838152600b6020526040812054600a805493945090928490811061229c57634e487b7160e01b600052603260045260246000fd5b9060005260206000200154905080600a83815481106122cb57634e487b7160e01b600052603260045260246000fd5b6000918252602080832090910192909255828152600b9091526040808220849055858252812055600a80548061231157634e487b7160e01b600052603160045260246000fd5b6001900381819060005260206000200160009055905550505050565b600061233883610d25565b6001600160a01b039093166000908152600860209081526040808320868452825280832085905593825260099052919091209190915550565b80356001600160a01b038116811461238857600080fd5b919050565b60006020828403121561239e578081fd5b610e5282612371565b600080604083850312156123b9578081fd5b6123c283612371565b91506123d060208401612371565b90509250929050565b6000806000606084860312156123ed578081fd5b6123f684612371565b925061240460208501612371565b9150604084013590509250925092565b60008060008060808587031215612429578081fd5b61243285612371565b935061244060208601612371565b925060408501359150606085013567ffffffffffffffff80821115612463578283fd5b818701915087601f830112612476578283fd5b8135818111156124885761248861297e565b604051601f8201601f19908116603f011681019083821181831017156124b0576124b061297e565b816040528281528a60208487010111156124c8578586fd5b82602086016020830137918201602001949094529598949750929550505050565b600080604083850312156124fb578182fd5b61250483612371565b915060208301358015158114612518578182fd5b809150509250929050565b60008060408385031215612535578182fd5b61253e83612371565b946020939093013593505050565b60006020828403121561255d578081fd5b5035919050565b60008060408385031215612576578182fd5b823591506123d060208401612371565b60008060408385031215612598578182fd5b50508035926020909101359150565b6000602082840312156125b8578081fd5b8135610e5281612994565b6000602082840312156125d4578081fd5b8151610e5281612994565b600081518084526125f78160208601602086016128a5565b601f01601f19169290920160200192915050565b6bffffffffffffffffffffffff198360601b168152600082516126358160148501602087016128a5565b919091016014019392505050565b600082516126558184602087016128a5565b9190910192915050565b600083516126718184602088016128a5565b8351908301906126858183602088016128a5565b01949350505050565b7f416363657373436f6e74726f6c3a206163636f756e74200000000000000000008152600083516126c68160178501602088016128a5565b7001034b99036b4b9b9b4b733903937b6329607d1b60179184019182015283516126f78160288401602088016128a5565b01602801949350505050565b6001600160a01b0385811682528416602082015260408101839052608060608201819052600090612736908301846125df565b9695505050505050565b602081526000610e5260208301846125df565b6020808252602d908201527f50726f647563743a2053746f726520636f6e747261637420616464726573732060408201526c063616e6e6f742062652030783609c1b606082015260800190565b60208082526032908201527f4552433732313a207472616e7366657220746f206e6f6e20455243373231526560408201527131b2b4bb32b91034b6b83632b6b2b73a32b960711b606082015260800190565b60208082526031908201527f4552433732313a207472616e736665722063616c6c6572206973206e6f74206f6040820152701ddb995c881b9bdc88185c1c1c9bdd9959607a1b606082015260800190565b6000821982111561285657612856612952565b500190565b60008261286a5761286a612968565b500490565b600081600019048311821515161561288957612889612952565b500290565b6000828210156128a0576128a0612952565b500390565b60005b838110156128c05781810151838201526020016128a8565b83811115610f885750506000910152565b6000816128e0576128e0612952565b506000190190565b600181811c908216806128fc57607f821691505b6020821081141561291d57634e487b7160e01b600052602260045260246000fd5b50919050565b600060001982141561293757612937612952565b5060010190565b60008261294d5761294d612968565b500690565b634e487b7160e01b600052601160045260246000fd5b634e487b7160e01b600052601260045260246000fd5b634e487b7160e01b600052604160045260246000fd5b6001600160e01b03198116811461092a57600080fdfea264697066735822122020085f8d3b0e381addb257d64e1f50764e86f60c673a42a232700c3efbf5cd1064736f6c63430008040033",
  "devdoc": {
    "kind": "dev",
    "methods": {
      "approve(address,uint256)": {
        "details": "See {IERC721-approve}."
      },
      "balanceOf(address)": {
        "details": "See {IERC721-balanceOf}."
      },
      "burn(uint256)": {
        "details": "Burns `tokenId`. See {ERC721-_burn}. Requirements: - The caller must own `tokenId` or be an approved operator."
      },
      "getApproved(uint256)": {
        "details": "See {IERC721-getApproved}."
      },
      "getRoleAdmin(bytes32)": {
        "details": "Returns the admin role that controls `role`. See {grantRole} and {revokeRole}. To change a role's admin, use {_setRoleAdmin}."
      },
      "getRoleMember(bytes32,uint256)": {
        "details": "Returns one of the accounts that have `role`. `index` must be a value between 0 and {getRoleMemberCount}, non-inclusive. Role bearers are not sorted in any particular way, and their ordering may change at any point. WARNING: When using {getRoleMember} and {getRoleMemberCount}, make sure you perform all queries on the same block. See the following https://forum.openzeppelin.com/t/iterating-over-elements-on-enumerableset-in-openzeppelin-contracts/2296[forum post] for more information."
      },
      "getRoleMemberCount(bytes32)": {
        "details": "Returns the number of accounts that have `role`. Can be used together with {getRoleMember} to enumerate all bearers of a role."
      },
      "grantRole(bytes32,address)": {
        "details": "Overload {grantRole} to track enumerable memberships"
      },
      "hasRole(bytes32,address)": {
        "details": "Returns `true` if `account` has been granted `role`."
      },
      "isApprovedForAll(address,address)": {
        "details": "See {IERC721-isApprovedForAll}."
      },
      "name()": {
        "details": "See {IERC721Metadata-name}."
      },
      "ownerOf(uint256)": {
        "details": "See {IERC721-ownerOf}."
      },
      "paused()": {
        "details": "Returns true if the contract is paused, and false otherwise."
      },
      "renounceRole(bytes32,address)": {
        "details": "Overload {renounceRole} to track enumerable memberships"
      },
      "revokeRole(bytes32,address)": {
        "details": "Overload {revokeRole} to track enumerable memberships"
      },
      "safeTransferFrom(address,address,uint256)": {
        "details": "See {IERC721-safeTransferFrom}."
      },
      "safeTransferFrom(address,address,uint256,bytes)": {
        "details": "See {IERC721-safeTransferFrom}."
      },
      "setApprovalForAll(address,bool)": {
        "details": "See {IERC721-setApprovalForAll}."
      },
      "symbol()": {
        "details": "See {IERC721Metadata-symbol}."
      },
      "tokenByIndex(uint256)": {
        "details": "See {IERC721Enumerable-tokenByIndex}."
      },
      "tokenOfOwnerByIndex(address,uint256)": {
        "details": "See {IERC721Enumerable-tokenOfOwnerByIndex}."
      },
      "tokenURI(uint256)": {
        "details": "See {IERC721Metadata-tokenURI}."
      },
      "totalSupply()": {
        "details": "See {IERC721Enumerable-totalSupply}."
      },
      "transferFrom(address,address,uint256)": {
        "details": "See {IERC721-transferFrom}."
      }
    },
    "version": 1
  },
  "userdoc": {
    "kind": "user",
    "methods": {},
    "version": 1
  },
  "storageLayout": {
    "storage": [
      {
        "astId": 62,
        "contract": "contracts/Product.sol:Product",
        "label": "_roles",
        "offset": 0,
        "slot": "0",
        "type": "t_mapping(t_bytes32,t_struct(RoleData)57_storage)"
      },
      {
        "astId": 403,
        "contract": "contracts/Product.sol:Product",
        "label": "_roleMembers",
        "offset": 0,
        "slot": "1",
        "type": "t_mapping(t_bytes32,t_struct(AddressSet)2969_storage)"
      },
      {
        "astId": 675,
        "contract": "contracts/Product.sol:Product",
        "label": "_name",
        "offset": 0,
        "slot": "2",
        "type": "t_string_storage"
      },
      {
        "astId": 677,
        "contract": "contracts/Product.sol:Product",
        "label": "_symbol",
        "offset": 0,
        "slot": "3",
        "type": "t_string_storage"
      },
      {
        "astId": 681,
        "contract": "contracts/Product.sol:Product",
        "label": "_owners",
        "offset": 0,
        "slot": "4",
        "type": "t_mapping(t_uint256,t_address)"
      },
      {
        "astId": 685,
        "contract": "contracts/Product.sol:Product",
        "label": "_balances",
        "offset": 0,
        "slot": "5",
        "type": "t_mapping(t_address,t_uint256)"
      },
      {
        "astId": 689,
        "contract": "contracts/Product.sol:Product",
        "label": "_tokenApprovals",
        "offset": 0,
        "slot": "6",
        "type": "t_mapping(t_uint256,t_address)"
      },
      {
        "astId": 695,
        "contract": "contracts/Product.sol:Product",
        "label": "_operatorApprovals",
        "offset": 0,
        "slot": "7",
        "type": "t_mapping(t_address,t_mapping(t_address,t_bool))"
      },
      {
        "astId": 1646,
        "contract": "contracts/Product.sol:Product",
        "label": "_ownedTokens",
        "offset": 0,
        "slot": "8",
        "type": "t_mapping(t_address,t_mapping(t_uint256,t_uint256))"
      },
      {
        "astId": 1650,
        "contract": "contracts/Product.sol:Product",
        "label": "_ownedTokensIndex",
        "offset": 0,
        "slot": "9",
        "type": "t_mapping(t_uint256,t_uint256)"
      },
      {
        "astId": 1653,
        "contract": "contracts/Product.sol:Product",
        "label": "_allTokens",
        "offset": 0,
        "slot": "10",
        "type": "t_array(t_uint256)dyn_storage"
      },
      {
        "astId": 1657,
        "contract": "contracts/Product.sol:Product",
        "label": "_allTokensIndex",
        "offset": 0,
        "slot": "11",
        "type": "t_mapping(t_uint256,t_uint256)"
      },
      {
        "astId": 575,
        "contract": "contracts/Product.sol:Product",
        "label": "_paused",
        "offset": 0,
        "slot": "12",
        "type": "t_bool"
      },
      {
        "astId": 3231,
        "contract": "contracts/Product.sol:Product",
        "label": "sku",
        "offset": 0,
        "slot": "13",
        "type": "t_string_storage"
      },
      {
        "astId": 3234,
        "contract": "contracts/Product.sol:Product",
        "label": "_tokenIdTracker",
        "offset": 0,
        "slot": "14",
        "type": "t_struct(Counter)2389_storage"
      },
      {
        "astId": 3236,
        "contract": "contracts/Product.sol:Product",
        "label": "_baseTokenURI",
        "offset": 0,
        "slot": "15",
        "type": "t_string_storage"
      },
      {
        "astId": 3238,
        "contract": "contracts/Product.sol:Product",
        "label": "_storeContract",
        "offset": 0,
        "slot": "16",
        "type": "t_address"
      },
      {
        "astId": 3242,
        "contract": "contracts/Product.sol:Product",
        "label": "_skuHashes",
        "offset": 0,
        "slot": "17",
        "type": "t_mapping(t_bytes_memory_ptr,t_bool)"
      }
    ],
    "types": {
      "t_address": {
        "encoding": "inplace",
        "label": "address",
        "numberOfBytes": "20"
      },
      "t_array(t_bytes32)dyn_storage": {
        "base": "t_bytes32",
        "encoding": "dynamic_array",
        "label": "bytes32[]",
        "numberOfBytes": "32"
      },
      "t_array(t_uint256)dyn_storage": {
        "base": "t_uint256",
        "encoding": "dynamic_array",
        "label": "uint256[]",
        "numberOfBytes": "32"
      },
      "t_bool": {
        "encoding": "inplace",
        "label": "bool",
        "numberOfBytes": "1"
      },
      "t_bytes32": {
        "encoding": "inplace",
        "label": "bytes32",
        "numberOfBytes": "32"
      },
      "t_bytes_memory_ptr": {
        "encoding": "bytes",
        "label": "bytes",
        "numberOfBytes": "32"
      },
      "t_mapping(t_address,t_bool)": {
        "encoding": "mapping",
        "key": "t_address",
        "label": "mapping(address => bool)",
        "numberOfBytes": "32",
        "value": "t_bool"
      },
      "t_mapping(t_address,t_mapping(t_address,t_bool))": {
        "encoding": "mapping",
        "key": "t_address",
        "label": "mapping(address => mapping(address => bool))",
        "numberOfBytes": "32",
        "value": "t_mapping(t_address,t_bool)"
      },
      "t_mapping(t_address,t_mapping(t_uint256,t_uint256))": {
        "encoding": "mapping",
        "key": "t_address",
        "label": "mapping(address => mapping(uint256 => uint256))",
        "numberOfBytes": "32",
        "value": "t_mapping(t_uint256,t_uint256)"
      },
      "t_mapping(t_address,t_uint256)": {
        "encoding": "mapping",
        "key": "t_address",
        "label": "mapping(address => uint256)",
        "numberOfBytes": "32",
        "value": "t_uint256"
      },
      "t_mapping(t_bytes32,t_struct(AddressSet)2969_storage)": {
        "encoding": "mapping",
        "key": "t_bytes32",
        "label": "mapping(bytes32 => struct EnumerableSet.AddressSet)",
        "numberOfBytes": "32",
        "value": "t_struct(AddressSet)2969_storage"
      },
      "t_mapping(t_bytes32,t_struct(RoleData)57_storage)": {
        "encoding": "mapping",
        "key": "t_bytes32",
        "label": "mapping(bytes32 => struct AccessControl.RoleData)",
        "numberOfBytes": "32",
        "value": "t_struct(RoleData)57_storage"
      },
      "t_mapping(t_bytes32,t_uint256)": {
        "encoding": "mapping",
        "key": "t_bytes32",
        "label": "mapping(bytes32 => uint256)",
        "numberOfBytes": "32",
        "value": "t_uint256"
      },
      "t_mapping(t_bytes_memory_ptr,t_bool)": {
        "encoding": "mapping",
        "key": "t_bytes_memory_ptr",
        "label": "mapping(bytes => bool)",
        "numberOfBytes": "32",
        "value": "t_bool"
      },
      "t_mapping(t_uint256,t_address)": {
        "encoding": "mapping",
        "key": "t_uint256",
        "label": "mapping(uint256 => address)",
        "numberOfBytes": "32",
        "value": "t_address"
      },
      "t_mapping(t_uint256,t_uint256)": {
        "encoding": "mapping",
        "key": "t_uint256",
        "label": "mapping(uint256 => uint256)",
        "numberOfBytes": "32",
        "value": "t_uint256"
      },
      "t_string_storage": {
        "encoding": "bytes",
        "label": "string",
        "numberOfBytes": "32"
      },
      "t_struct(AddressSet)2969_storage": {
        "encoding": "inplace",
        "label": "struct EnumerableSet.AddressSet",
        "members": [
          {
            "astId": 2968,
            "contract": "contracts/Product.sol:Product",
            "label": "_inner",
            "offset": 0,
            "slot": "0",
            "type": "t_struct(Set)2694_storage"
          }
        ],
        "numberOfBytes": "64"
      },
      "t_struct(Counter)2389_storage": {
        "encoding": "inplace",
        "label": "struct Counters.Counter",
        "members": [
          {
            "astId": 2388,
            "contract": "contracts/Product.sol:Product",
            "label": "_value",
            "offset": 0,
            "slot": "0",
            "type": "t_uint256"
          }
        ],
        "numberOfBytes": "32"
      },
      "t_struct(RoleData)57_storage": {
        "encoding": "inplace",
        "label": "struct AccessControl.RoleData",
        "members": [
          {
            "astId": 54,
            "contract": "contracts/Product.sol:Product",
            "label": "members",
            "offset": 0,
            "slot": "0",
            "type": "t_mapping(t_address,t_bool)"
          },
          {
            "astId": 56,
            "contract": "contracts/Product.sol:Product",
            "label": "adminRole",
            "offset": 0,
            "slot": "1",
            "type": "t_bytes32"
          }
        ],
        "numberOfBytes": "64"
      },
      "t_struct(Set)2694_storage": {
        "encoding": "inplace",
        "label": "struct EnumerableSet.Set",
        "members": [
          {
            "astId": 2689,
            "contract": "contracts/Product.sol:Product",
            "label": "_values",
            "offset": 0,
            "slot": "0",
            "type": "t_array(t_bytes32)dyn_storage"
          },
          {
            "astId": 2693,
            "contract": "contracts/Product.sol:Product",
            "label": "_indexes",
            "offset": 0,
            "slot": "1",
            "type": "t_mapping(t_bytes32,t_uint256)"
          }
        ],
        "numberOfBytes": "64"
      },
      "t_uint256": {
        "encoding": "inplace",
        "label": "uint256",
        "numberOfBytes": "32"
      }
    }
  }
}